{
  "_format": "hh-sol-artifact-1",
  "contractName": "WavePortal",
  "sourceName": "contracts/WavePortal.sol",
  "abi": [
    {
      "inputs": [],
      "stateMutability": "nonpayable",
      "type": "constructor"
    },
    {
      "inputs": [],
      "name": "getTotalWaves",
      "outputs": [
        {
          "internalType": "uint256",
          "name": "",
          "type": "uint256"
        }
      ],
      "stateMutability": "view",
      "type": "function"
    },
    {
      "inputs": [
        {
          "internalType": "address",
          "name": "user",
          "type": "address"
        }
      ],
      "name": "getUserWaves",
      "outputs": [
        {
          "internalType": "uint256",
          "name": "",
          "type": "uint256"
        }
      ],
      "stateMutability": "view",
      "type": "function"
    },
    {
      "inputs": [],
      "name": "wave",
      "outputs": [],
      "stateMutability": "nonpayable",
      "type": "function"
    },
    {
      "inputs": [
        {
          "internalType": "address",
          "name": "",
          "type": "address"
        }
      ],
      "name": "waves",
      "outputs": [
        {
          "internalType": "uint256",
          "name": "",
          "type": "uint256"
        }
      ],
      "stateMutability": "view",
      "type": "function"
    }
  ],
  "bytecode": "0x608060405234801561001057600080fd5b5061003c6040518060600160405280602581526020016109c46025913961004160201b61027a1760201c565b6101c4565b6100dd816040516024016100559190610142565b6040516020818303038152906040527f41304fac000000000000000000000000000000000000000000000000000000007bffffffffffffffffffffffffffffffffffffffffffffffffffffffff19166020820180517bffffffffffffffffffffffffffffffffffffffffffffffffffffffff83818316178352505050506100e060201b60201c565b50565b60008151905060006a636f6e736f6c652e6c6f679050602083016000808483855afa5050505050565b600061011482610164565b61011e818561016f565b935061012e818560208601610180565b610137816101b3565b840191505092915050565b6000602082019050818103600083015261015c8184610109565b905092915050565b600081519050919050565b600082825260208201905092915050565b60005b8381101561019e578082015181840152602081019050610183565b838111156101ad576000848401525b50505050565b6000601f19601f8301169050919050565b6107f1806101d36000396000f3fe608060405234801561001057600080fd5b506004361061004c5760003560e01c80632581ccd1146100515780636cdca0ea146100815780636fe15b44146100b15780639a2cdc08146100bb575b600080fd5b61006b60048036038101906100669190610528565b6100d9565b6040516100789190610668565b60405180910390f35b61009b60048036038101906100969190610528565b6100f1565b6040516100a89190610668565b60405180910390f35b6100b961017f565b005b6100c361022f565b6040516100d09190610668565b60405180910390f35b60016020528060005260406000206000915090505481565b600080600160008473ffffffffffffffffffffffffffffffffffffffff1673ffffffffffffffffffffffffffffffffffffffff1681526020019081526020016000205490506101766040518060400160405280601b81526020017f55736572202573206861732077617665642025642074696d65732100000000008152508483610313565b80915050919050565b6001600080828254610191919061069f565b9250508190555060018060003373ffffffffffffffffffffffffffffffffffffffff1673ffffffffffffffffffffffffffffffffffffffff16815260200190815260200160002060008282546101e7919061069f565b9250508190555061022d6040518060400160405280600d81526020017f2573206861732077617665642100000000000000000000000000000000000000815250336103b2565b565b60006102726040518060400160405280601781526020017f5765206861766520256420746f74616c2077617665732100000000000000000081525060005461044e565b600054905090565b6103108160405160240161028e91906105a8565b6040516020818303038152906040527f41304fac000000000000000000000000000000000000000000000000000000007bffffffffffffffffffffffffffffffffffffffffffffffffffffffff19166020820180517bffffffffffffffffffffffffffffffffffffffffffffffffffffffff83818316178352505050506104ea565b50565b6103ad83838360405160240161032b939291906105fa565b6040516020818303038152906040527f07c81217000000000000000000000000000000000000000000000000000000007bffffffffffffffffffffffffffffffffffffffffffffffffffffffff19166020820180517bffffffffffffffffffffffffffffffffffffffffffffffffffffffff83818316178352505050506104ea565b505050565b61044a82826040516024016103c89291906105ca565b6040516020818303038152906040527f319af333000000000000000000000000000000000000000000000000000000007bffffffffffffffffffffffffffffffffffffffffffffffffffffffff19166020820180517bffffffffffffffffffffffffffffffffffffffffffffffffffffffff83818316178352505050506104ea565b5050565b6104e68282604051602401610464929190610638565b6040516020818303038152906040527f9710a9d0000000000000000000000000000000000000000000000000000000007bffffffffffffffffffffffffffffffffffffffffffffffffffffffff19166020820180517bffffffffffffffffffffffffffffffffffffffffffffffffffffffff83818316178352505050506104ea565b5050565b60008151905060006a636f6e736f6c652e6c6f679050602083016000808483855afa5050505050565b600081359050610522816107a4565b92915050565b60006020828403121561053a57600080fd5b600061054884828501610513565b91505092915050565b61055a816106f5565b82525050565b600061056b82610683565b610575818561068e565b9350610585818560208601610731565b61058e81610793565b840191505092915050565b6105a281610727565b82525050565b600060208201905081810360008301526105c28184610560565b905092915050565b600060408201905081810360008301526105e48185610560565b90506105f36020830184610551565b9392505050565b600060608201905081810360008301526106148186610560565b90506106236020830185610551565b6106306040830184610599565b949350505050565b600060408201905081810360008301526106528185610560565b90506106616020830184610599565b9392505050565b600060208201905061067d6000830184610599565b92915050565b600081519050919050565b600082825260208201905092915050565b60006106aa82610727565b91506106b583610727565b9250827fffffffffffffffffffffffffffffffffffffffffffffffffffffffffffffffff038211156106ea576106e9610764565b5b828201905092915050565b600061070082610707565b9050919050565b600073ffffffffffffffffffffffffffffffffffffffff82169050919050565b6000819050919050565b60005b8381101561074f578082015181840152602081019050610734565b8381111561075e576000848401525b50505050565b7f4e487b7100000000000000000000000000000000000000000000000000000000600052601160045260246000fd5b6000601f19601f8301169050919050565b6107ad816106f5565b81146107b857600080fd5b5056fea2646970667358221220156fc449775414326325b081d68d0385d4a31f66566e69f0a547865b1e10a5b764736f6c63430008000033596f20796f2c204920616d206120636f6e747261637420616e64204920616d20736d617274",
  "linkReferences": {},
  "deployedLinkReferences": {}
}