{
  "_format": "hh-sol-artifact-1",
  "contractName": "WavePortal",
  "sourceName": "contracts/WavePortal.sol",
  "abi": [
    {
      "inputs": [],
      "stateMutability": "payable",
      "type": "constructor"
    },
    {
      "anonymous": false,
      "inputs": [
        {
          "indexed": true,
          "internalType": "address",
          "name": "from",
          "type": "address"
        },
        {
          "indexed": false,
          "internalType": "uint256",
          "name": "timestamp",
          "type": "uint256"
        },
        {
          "indexed": false,
          "internalType": "string",
          "name": "message",
          "type": "string"
        }
      ],
      "name": "NewWave",
      "type": "event"
    },
    {
      "inputs": [],
      "name": "getAllWaves",
      "outputs": [
        {
          "components": [
            {
              "internalType": "address",
              "name": "waver",
              "type": "address"
            },
            {
              "internalType": "string",
              "name": "message",
              "type": "string"
            },
            {
              "internalType": "uint256",
              "name": "timestamp",
              "type": "uint256"
            }
          ],
          "internalType": "struct WavePortal.Wave[]",
          "name": "",
          "type": "tuple[]"
        }
      ],
      "stateMutability": "view",
      "type": "function"
    },
    {
      "inputs": [],
      "name": "getTotalWaves",
      "outputs": [
        {
          "internalType": "uint256",
          "name": "",
          "type": "uint256"
        }
      ],
      "stateMutability": "view",
      "type": "function"
    },
    {
      "inputs": [
        {
          "internalType": "address",
          "name": "user",
          "type": "address"
        }
      ],
      "name": "getUserWaves",
      "outputs": [
        {
          "internalType": "uint256",
          "name": "",
          "type": "uint256"
        }
      ],
      "stateMutability": "view",
      "type": "function"
    },
    {
      "inputs": [
        {
          "internalType": "address",
          "name": "",
          "type": "address"
        }
      ],
      "name": "lastWavedAt",
      "outputs": [
        {
          "internalType": "uint256",
          "name": "",
          "type": "uint256"
        }
      ],
      "stateMutability": "view",
      "type": "function"
    },
    {
      "inputs": [
        {
          "internalType": "string",
          "name": "_message",
          "type": "string"
        }
      ],
      "name": "wave",
      "outputs": [],
      "stateMutability": "nonpayable",
      "type": "function"
    },
    {
      "inputs": [
        {
          "internalType": "address",
          "name": "",
          "type": "address"
        }
      ],
      "name": "wavesMap",
      "outputs": [
        {
          "internalType": "uint256",
          "name": "",
          "type": "uint256"
        }
      ],
      "stateMutability": "view",
      "type": "function"
    }
  ],
  "bytecode": "0x60806040526200003360405180606001604052806025815260200162001771602591396200005b60201b620007fc1760201c565b60644442620000439190620001a8565b6200004f919062000245565b600081905550620002ec565b620000fb8160405160240162000072919062000168565b6040516020818303038152906040527f41304fac000000000000000000000000000000000000000000000000000000007bffffffffffffffffffffffffffffffffffffffffffffffffffffffff19166020820180517bffffffffffffffffffffffffffffffffffffffffffffffffffffffff8381831617835250505050620000fe60201b60201c565b50565b60008151905060006a636f6e736f6c652e6c6f679050602083016000808483855afa5050505050565b600062000134826200018c565b62000140818562000197565b9350620001528185602086016200020f565b6200015d81620002db565b840191505092915050565b6000602082019050818103600083015262000184818462000127565b905092915050565b600081519050919050565b600082825260208201905092915050565b6000620001b58262000205565b9150620001c28362000205565b9250827fffffffffffffffffffffffffffffffffffffffffffffffffffffffffffffffff03821115620001fa57620001f96200027d565b5b828201905092915050565b6000819050919050565b60005b838110156200022f57808201518184015260208101905062000212565b838111156200023f576000848401525b50505050565b6000620002528262000205565b91506200025f8362000205565b925082620002725762000271620002ac565b5b828206905092915050565b7f4e487b7100000000000000000000000000000000000000000000000000000000600052601160045260246000fd5b7f4e487b7100000000000000000000000000000000000000000000000000000000600052601260045260246000fd5b6000601f19601f8301169050919050565b61147580620002fc6000396000f3fe608060405234801561001057600080fd5b50600436106100625760003560e01c8063449d46c0146100675780636cdca0ea146100835780639a2cdc08146100b3578063a2b2c662146100d1578063a42a466314610101578063bd43a90814610131575b600080fd5b610081600480360381019061007c9190610c7d565b61014f565b005b61009d60048036038101906100989190610c54565b6105a2565b6040516100aa9190611107565b60405180910390f35b6100bb610630565b6040516100c89190611107565b60405180910390f35b6100eb60048036038101906100e69190610c54565b61067b565b6040516100f89190611107565b60405180910390f35b61011b60048036038101906101169190610c54565b610693565b6040516101289190611107565b60405180910390f35b6101396106ab565b6040516101469190610f80565b60405180910390f35b42610384600360003373ffffffffffffffffffffffffffffffffffffffff1673ffffffffffffffffffffffffffffffffffffffff1681526020019081526020016000205461019d9190611224565b106101dd576040517f08c379a00000000000000000000000000000000000000000000000000000000081526004016101d4906110e7565b60405180910390fd5b42600360003373ffffffffffffffffffffffffffffffffffffffff1673ffffffffffffffffffffffffffffffffffffffff1681526020019081526020016000208190555060018060008282546102339190611224565b925050819055506001600260003373ffffffffffffffffffffffffffffffffffffffff1673ffffffffffffffffffffffffffffffffffffffff168152602001908152602001600020600082825461028a9190611224565b925050819055506102d16040518060400160405280601081526020017f25732068617320776176656420257321000000000000000000000000000000008152503383610895565b600460405180606001604052803373ffffffffffffffffffffffffffffffffffffffff16815260200183815260200142815250908060018154018082558091505060019003906000526020600020906003020160009091909190915060008201518160000160006101000a81548173ffffffffffffffffffffffffffffffffffffffff021916908373ffffffffffffffffffffffffffffffffffffffff1602179055506020820151816001019080519060200190610390929190610b34565b50604082015181600201555050606460005442446103ae9190611224565b6103b89190611224565b6103c2919061132a565b6000819055506104096040518060400160405280601681526020017f52616e646f6d20232067656e6572617465643a20256400000000000000000000815250600054610934565b60326000541161054f576104526040518060400160405280600781526020017f257320776f6e2100000000000000000000000000000000000000000000000000815250336109d0565b6000655af3107a40009050478111156104a0576040517f08c379a0000000000000000000000000000000000000000000000000000000008152600401610497906110a7565b60405180910390fd5b60003373ffffffffffffffffffffffffffffffffffffffff16826040516104c690610f6b565b60006040518083038185875af1925050503d8060008114610503576040519150601f19603f3d011682016040523d82523d6000602084013e610508565b606091505b505090508061054c576040517f08c379a0000000000000000000000000000000000000000000000000000000008152600401610543906110c7565b60405180910390fd5b50505b3373ffffffffffffffffffffffffffffffffffffffff167f5f7e16dc676677766a70e9c5628aa6c54ddb8b6e5188e2ae1e1f17f1ffbea7164283604051610597929190611122565b60405180910390a250565b600080600260008473ffffffffffffffffffffffffffffffffffffffff1673ffffffffffffffffffffffffffffffffffffffff1681526020019081526020016000205490506106276040518060400160405280601b81526020017f55736572202573206861732077617665642025642074696d65732100000000008152508483610a6c565b80915050919050565b60006106736040518060400160405280601781526020017f5765206861766520256420746f74616c20776176657321000000000000000000815250600154610934565b600154905090565b60026020528060005260406000206000915090505481565b60036020528060005260406000206000915090505481565b60606004805480602002602001604051908101604052809291908181526020016000905b828210156107f357838290600052602060002090600302016040518060600160405290816000820160009054906101000a900473ffffffffffffffffffffffffffffffffffffffff1673ffffffffffffffffffffffffffffffffffffffff1673ffffffffffffffffffffffffffffffffffffffff168152602001600182018054610758906112f8565b80601f0160208091040260200160405190810160405280929190818152602001828054610784906112f8565b80156107d15780601f106107a6576101008083540402835291602001916107d1565b820191906000526020600020905b8154815290600101906020018083116107b457829003601f168201915b50505050508152602001600282015481525050815260200190600101906106cf565b50505050905090565b610892816040516024016108109190610fa2565b6040516020818303038152906040527f41304fac000000000000000000000000000000000000000000000000000000007bffffffffffffffffffffffffffffffffffffffffffffffffffffffff19166020820180517bffffffffffffffffffffffffffffffffffffffffffffffffffffffff8381831617835250505050610b0b565b50565b61092f8383836040516024016108ad93929190610ff4565b6040516020818303038152906040527fe0e9ad4f000000000000000000000000000000000000000000000000000000007bffffffffffffffffffffffffffffffffffffffffffffffffffffffff19166020820180517bffffffffffffffffffffffffffffffffffffffffffffffffffffffff8381831617835250505050610b0b565b505050565b6109cc828260405160240161094a929190611077565b6040516020818303038152906040527f9710a9d0000000000000000000000000000000000000000000000000000000007bffffffffffffffffffffffffffffffffffffffffffffffffffffffff19166020820180517bffffffffffffffffffffffffffffffffffffffffffffffffffffffff8381831617835250505050610b0b565b5050565b610a6882826040516024016109e6929190610fc4565b6040516020818303038152906040527f319af333000000000000000000000000000000000000000000000000000000007bffffffffffffffffffffffffffffffffffffffffffffffffffffffff19166020820180517bffffffffffffffffffffffffffffffffffffffffffffffffffffffff8381831617835250505050610b0b565b5050565b610b06838383604051602401610a8493929190611039565b6040516020818303038152906040527f07c81217000000000000000000000000000000000000000000000000000000007bffffffffffffffffffffffffffffffffffffffffffffffffffffffff19166020820180517bffffffffffffffffffffffffffffffffffffffffffffffffffffffff8381831617835250505050610b0b565b505050565b60008151905060006a636f6e736f6c652e6c6f679050602083016000808483855afa5050505050565b828054610b40906112f8565b90600052602060002090601f016020900481019282610b625760008555610ba9565b82601f10610b7b57805160ff1916838001178555610ba9565b82800160010185558215610ba9579182015b82811115610ba8578251825591602001919060010190610b8d565b5b509050610bb69190610bba565b5090565b5b80821115610bd3576000816000905550600101610bbb565b5090565b6000610bea610be584611183565b611152565b905082815260208101848484011115610c0257600080fd5b610c0d8482856112b6565b509392505050565b600081359050610c2481611428565b92915050565b600082601f830112610c3b57600080fd5b8135610c4b848260208601610bd7565b91505092915050565b600060208284031215610c6657600080fd5b6000610c7484828501610c15565b91505092915050565b600060208284031215610c8f57600080fd5b600082013567ffffffffffffffff811115610ca957600080fd5b610cb584828501610c2a565b91505092915050565b6000610cca8383610efd565b905092915050565b610cdb8161127a565b82525050565b610cea8161127a565b82525050565b6000610cfb826111c3565b610d0581856111e6565b935083602082028501610d17856111b3565b8060005b85811015610d535784840389528151610d348582610cbe565b9450610d3f836111d9565b925060208a01995050600181019050610d1b565b50829750879550505050505092915050565b6000610d70826111ce565b610d7a8185611202565b9350610d8a8185602086016112c5565b610d9381611417565b840191505092915050565b6000610da9826111ce565b610db38185611213565b9350610dc38185602086016112c5565b610dcc81611417565b840191505092915050565b6000610de4603483611213565b91507f547279696e6720746f207769746864726177206d6f7265206d6f6e657920746860008301527f616e2074686520636f6e7472616374206861732e0000000000000000000000006020830152604082019050919050565b6000610e4a602783611213565b91507f4661696c656420746f207769746864726177206d6f6e65792066726f6d20636f60008301527f6e74726163742e000000000000000000000000000000000000000000000000006020830152604082019050919050565b6000610eb06000836111f7565b9150600082019050919050565b6000610eca600883611213565b91507f576169742031356d0000000000000000000000000000000000000000000000006000830152602082019050919050565b6000606083016000830151610f156000860182610cd2565b5060208301518482036020860152610f2d8282610d65565b9150506040830151610f426040860182610f4d565b508091505092915050565b610f56816112ac565b82525050565b610f65816112ac565b82525050565b6000610f7682610ea3565b9150819050919050565b60006020820190508181036000830152610f9a8184610cf0565b905092915050565b60006020820190508181036000830152610fbc8184610d9e565b905092915050565b60006040820190508181036000830152610fde8185610d9e565b9050610fed6020830184610ce1565b9392505050565b6000606082019050818103600083015261100e8186610d9e565b905061101d6020830185610ce1565b818103604083015261102f8184610d9e565b9050949350505050565b600060608201905081810360008301526110538186610d9e565b90506110626020830185610ce1565b61106f6040830184610f5c565b949350505050565b600060408201905081810360008301526110918185610d9e565b90506110a06020830184610f5c565b9392505050565b600060208201905081810360008301526110c081610dd7565b9050919050565b600060208201905081810360008301526110e081610e3d565b9050919050565b6000602082019050818103600083015261110081610ebd565b9050919050565b600060208201905061111c6000830184610f5c565b92915050565b60006040820190506111376000830185610f5c565b81810360208301526111498184610d9e565b90509392505050565b6000604051905081810181811067ffffffffffffffff82111715611179576111786113e8565b5b8060405250919050565b600067ffffffffffffffff82111561119e5761119d6113e8565b5b601f19601f8301169050602081019050919050565b6000819050602082019050919050565b600081519050919050565b600081519050919050565b6000602082019050919050565b600082825260208201905092915050565b600081905092915050565b600082825260208201905092915050565b600082825260208201905092915050565b600061122f826112ac565b915061123a836112ac565b9250827fffffffffffffffffffffffffffffffffffffffffffffffffffffffffffffffff0382111561126f5761126e61135b565b5b828201905092915050565b60006112858261128c565b9050919050565b600073ffffffffffffffffffffffffffffffffffffffff82169050919050565b6000819050919050565b82818337600083830152505050565b60005b838110156112e35780820151818401526020810190506112c8565b838111156112f2576000848401525b50505050565b6000600282049050600182168061131057607f821691505b60208210811415611324576113236113b9565b5b50919050565b6000611335826112ac565b9150611340836112ac565b9250826113505761134f61138a565b5b828206905092915050565b7f4e487b7100000000000000000000000000000000000000000000000000000000600052601160045260246000fd5b7f4e487b7100000000000000000000000000000000000000000000000000000000600052601260045260246000fd5b7f4e487b7100000000000000000000000000000000000000000000000000000000600052602260045260246000fd5b7f4e487b7100000000000000000000000000000000000000000000000000000000600052604160045260246000fd5b6000601f19601f8301169050919050565b6114318161127a565b811461143c57600080fd5b5056fea2646970667358221220343afc8197e432cf3be708c72d79a4a22ad67e12265a36254831bb557ce4ee1764736f6c63430008000033596f20796f2c204920616d206120636f6e747261637420616e64204920616d20736d617274",
  "linkReferences": {},
  "deployedLinkReferences": {}
}